:100000000C943B090C9457090C9457090C9457090C
:100010000C9457090C9457090C9457090C945709E0
:100020000C9457090C9457090C9487100C94E31006
:100030000C9457090C9457090C9457090C945709C0
:100040000C9457090C9457090C9457090C945709B0
:100050000C9457090C9457090C9457090C945709A0
:100060000C9457090C9457090C9457090C94570990
:100070000C9457090C9457090C9457090C94570980
:100080000C9457090C9457090C9457090C94570970
:100090000C9457090C9457090C9457090C94570960
:1000A0000C9457090C9457090C945709E50DED0D64
:1000B000F30DF90DFF0D050E0B0E110E400E420E45
:1000C000440E460E480E4A0E4C0E4E0E0000090F0E
:1000D000090F090F090F090F090F090F090F090F60
:1000E000090F090F090F0000090F090F090F090F68
:1000F000090F0000000000000000090F090F090FA0
:10010000090F090FB70F090F090F090F090F090F81
:10011000520F520F090F090F090F090F090FB70FDF
:10012000090F090F090F090F090F090F000000003F
:10013000090F090F090F090F090F090F090F090FFF
:10014000090F090F090F090F0000090F090F090F07
:10015000090F090F090F090F090F090F090F090FDF
:10016000090F090F090F0000090F090F090F090FE7
:10017000090F090F0000370F370F370F370F370FF1
:10018000370F370F370F370F370F370F370F000085
:10019000370F370F370F370F370F370F370F370F2F
:1001A000370F370F370F370F370F370F370F090F4D
:1001B000090F090F090FB20F560F560FB20F090F93
:1001C000090F090F090F090F370F090F090F090F41
:1001D000090FB20F00000000090F090FB20FB20F94
:1001E000B20F090F370FB20FB20F090F090F00003E
:1001F0000000370F0000090FB20FB20F090F090FEF
:100200000000090F090F090F090F090F090F090F46
:10021000090F090F090F090F090F090F000000004E
:1002200000000000000000000000000000000000CE
:1002300000000000000000000000000000000000BE
:1002400000000000000000000000000000000000AE
:10025000000000000000000000000000000000009E
:10026000000000000000000000000000000000008E
:10027000000000000000000000000000000000007E
:10028000000000000000000000000000000000006E
:10029000000000000000000000000000000000005E
:1002A000000000000000000000000000000000004E
:1002B000000000000000000000000000000000003E
:1002C000000000000000370F370F370F370F370FD0
:1002D000370F370F370F370F090F370F370F000062
:1002E000370F090F370F370F370F370F370F370F0C
:1002F000370F370F370F090F090F370F370F370F2A
:10030000370F370F370F370F370F370F370F090FEB
:10031000090F090F090F370F370F370F370F370F37
:10032000370F370F00000000370F090F090F090FB3
:10033000090F370F370F370F370F370F370F370FBB
:10034000370F370F370F090F090F090F090F370F35
:10035000370F370F370F370F370F370F370F0000B3
:10036000370F0000090F090F090F370F00000000B9
:10037000000000000000540F560F680F6A0F0000C5
:10038000000000000000000000000000000000006D
:100390000000780F000000000000000000000000D6
:1003A000000000000000000000000000500F520F8D
:1003B00000000000000000000000640F660F2A101B
:1003C00000000000370F740F760F000000000000DF
:1003D00000000000600F620F0B1000000000110F02
:1003E000700F720F00000000000000005C0F5E0F35
:1003F000B70F000000000000090F6C0F6E0F000027
:10040000000000000000580F5A0F0000000000001C
:1004100000000000000000000000000000000000DC
:1004200000000000000000000000000000000000CC
:1004300000000000000000000000000000000000BC
:1004400000000000000000000000000000000000AC
:100750000000000000000000000000000000090F81
:10076000090F090F090F090F090F090F090F090FC9
:10077000090F090F090F0000090F090F090F090FD1
:10078000090F0000000000000000090F090F090F09
:10079000090F090FB70F090F090F090F090F090FEB
:1007A000500F500F090F090F090F090F090FB70F4D
:1007B000090F090F090F090F090F090F00000000A9
:1007C000090F090F090F090F090F090F090F090F69
:1007D000090F090F090F090F500F090F090F090F12
:1007E000090F090F090F090F090F090F090F090F49
:1007F000090F090F090F0B10090F090F090F090F36
:10080000090F090F0000370F370F370F370F370F5A
:10081000370F370F370F370F370F370F370F0000EE
:10082000370F370F370F370F370F370F370F370F98
:10083000370F370F370F370F370F370F370F090FB6
:10084000090F090F090FB20F540F540FB20F090F00
:10085000090F090F090F090F370F090F090F090FAA
:10086000090FB20F00000000090F090FB20FB20FFD
:10087000B20F090F370FB20FB20F090F090F0000A7
:10088000520F370F0000090FB20FB20F090F090FF7
:100890000000090F090F090F090F090F090F090FB0
:1008A000090F090F090F090F090F090F00000000B8
:1008B0000000000000000000000000000000000038
:1008C0000000000000000000000000000000000028
:1008D0000000000000000000000000000000000018
:1008E0000000000000000000000000000000000008
:1008F00000000000000000000000000000000000F8
:1009000000000000000000000000000000000000E7
:1009100000000000000000000000000000000000D7
:1009200000000000000000000000000000000000C7
:100930000000000000000000780F00000000000030
:1009400000000000000000000000000000000000A7
:10095000000000000000370F370F370F370F370F39
:10096000370F370F370F370F090F370F370F0000CB
:10097000370F090F370F370F370F370F370F370F75
:10098000370F370F370F090F090F370F370F370F93
:10099000370F370F370F370F370F370F370F090F55
:1009A000090F090F090F370F370F370F370F370FA1
:1009B000370F370F00000000370F090F090F090F1D
:1009C000090F370F370F370F370F370F370F370F25
:1009D000370F370F370F090F090F090F090F370F9F
:1009E000370F370F370F370F370F370F370F2A10E3
:1009F000370F2A10090F090F090F370F00000000E9
:100A000000000000000000000000000000000000E6
:100A100000000000000000000000000000000000D6
:100A200000000000000000000000000000000000C6
:100A300000000000000000000000000000000000B6
:100DE000000000000000000000000000004D4C2A40
:100DF0004AE0E2E6E44B2C284E00E33531504F0048
:100E00000000005051524FE7E11D1B06190501017A
:100E10001110363738E52B041607090A00000B0DB0
:100E20000E0F333431141A081517012F1C180C1229
:100E300013302E1E1F202122290323242526272D8F
:100E400000000000000000000000000000000000A2
:100E5000000000000000000000000000005E5F6075
:100E6000612E0202255A5B5C5D7F0033382D6233B0
:100E70000000315926272E81002F302F300001002D
:100E8000002D3637B480003A3B3C3D3E44453F4060
:100E90004142436600000000000000000000000026
:100EA0000000000000000000000000000000000042
:100EB0000000000000000000000000000000000032
:100EC0000000000000000000000000000000000022
:100ED0000000000000000000000000000000000012
:100EE0000000000000000000000000000000000002
:100EF0000000620000000049000000000000000047
:100F000000375800000000000000000000595A5B44
:100F100058000000000000000000005C5D5E57000B
:100F20000000000000000000005F6061560000004B
:100F3000000000000003000367545500000000009B
:100F400000000000000000000000000000000000A1
:100F50000000000000000000000000000000000091
:100F60000000000000000000000000000000000081
:100F70000000000000000000000000000000000071
:100F80000000000000000000000000000000000061
:100F90000000000000000000000000000000000051
:100FA0000000000000000000000000000000000041
:100FB0000000000000000000000000000000000031
:100FC0000000000000000000000000000000000021
:100FD0000000000000000000000000000000000011
:100FE0000000000000000000000000000000000001
:100FF00000000000000000000000000000000000F1
:1010000000000000000000000000000000000000E0
:1010100000000000000000000000000000000000D0
:1010200000000000000000000000000000000000C0
:1010300000000000000000000000000000000000B0
:1010400000000000000000000000000000000000A0
:101050000000000000000000000000000000000090
:101060000000000000000000000000000000000080
:101070000000000000000000000000000000000070
:101080000000000000000000000000000000000060
:101090000000000000000000000000000000000050
:1010A0000000000000000000000000000000000040
:1010B0000000000000000000000000000000000030
:1010C0000000000000000000000000000000000020
:1010D0000000000000000000000000000000000010
:1010E0000000000000000000000000000000000000
:1010F00000000000000000000000000000000000F0
:1011000000000000000000000000000000000000DF
:1011100000000000000000000000000000000000CF
:1011200000000000000000000000000000000000BF
:1011300000000000000100005C121200020000C963
:10114000113B00210000DB1109002200001D123FAD
:1011500000210100F411090022010004121900030A
:101160000000C5110401030904AB111802030904AE
:1011700073113636034500720067006F0044006F3C
:1011800000780020006500720067006F006E006F3D
:10119000006D006900630020006B0065007900624B
:1011A000006F006100720064000000180375006E9B
:1011B00000730070006500630069006600690065E7
:1011C00000640000000403090409023B000201005E
:1011D000C0320904000001030101000921110100CE
:1011E00001223F000705810308000A0904010001EC
:1011F00003000000092111010001221900070582E6
:101200000308000A050C0901A10185031501269CAC
:101210000219012A9C02751095018100C00501097F
:1012200006A10175019508050719E029E7150025B4
:10123000018102950175088103950575010508195D
:10124000012905910295017503910395067508150D
:101250000025680507190029688100C012010002F5
:1012600000000020501D286000010102000101C1A2
:101270000601C106000011241FBECFEFDAE0DEBF79
:10128000CDBF11E0A0E0B1E0E4E2F5E202C00590DC
:101290000D92AA31B107D9F712E0AAE1B1E001C07D
:1012A0001D92AF3CB107E1F7D5D00C9490120C948D
:1012B000000020911A01281760F030E0281B310946
:1012C000F901EE0FFF1FE20FF31FE757FD4F80817B
:1012D000089580E0089520911A01281760F030E009
:1012E000281B3109F901EE0FFF1FE20FF31FE7572B
:1012F000FD4F8281089580E00895E1E0F1E021E072
:1013000030E09191911117C0F901E050FF4F91E049
:10131000908340911A014F5F40931A0150E0FA0107
:10132000EE0FFF1FE40FF51FE757FD4F808321836A
:101330006283822F08952F5F3F4F2431310509F7D3
:1013400080E00895CF93DF9360911A0191E0C82F58
:10135000D0E0C050DF4F6917B0F1292F30E0F9011C
:10136000EE0FFF1FE20FF31FE757FD4F21812813F8
:1013700028C0292F30E09617C1F0A9014F5F5F4FB9
:10138000DA01AA0FBB1FA40FB51FA757BD4F4C9181
:10139000F901EE0FFF1FE20FF31FE757FD4F4083E8
:1013A00011962C9121839F5FE4CFF901EE0FFF1F6F
:1013B000E20FF31FE757FD4F1082118218826FEF83
:1013C000690F9F5FC8CF60931A01DF91CF91089595
:1013D0002091C7028091CA0290918802E091870211
:1013E000222381F02EE0E29FF001112424E5929F58
:1013F000E00DF11D1124E80FF11DEE0FFF1FE45A5F
:10140000F84F0FC02EE0E29FF001112424E5929FD7
:10141000E00DF11D1124E80FF11DEE0FFF1FE45345
:10142000FF4F85919491009711F0FC0109958091EF
:101430001A01282F30E0F901EE0FFF1FE20FF31F12
:10144000E757FD4F9281923021F490913202911131
:1014500079CF0895E0D08CE090E09093890080935C
:10146000880090938B0080938A0090938D008093E6
:101470008C00259A269A279AF8D50ED68823E9F368
:101480008FE790E090938900809388002FE732E403
:1014900040E1215030404040E1F700C0000090930F
:1014A0008B0080938A002FE732E440E121503040E6
:1014B0004040E1F700C0000090938D0080938C00C5
:1014C0002FE732E440E1215030404040E1F700C0D6
:1014D000000025982698279890938900809388008B
:1014E00090938B0080938A0090938D0080938C0062
:1014F0000EE0809114019091150120911601309118
:1015000017013093150120931401909317018093D4
:1015100016018DD01092310280913102863008F090
:1015200058C01092C802F090C802109131028DE0AC
:101530008F1508F44AC0E0911601F0911701019F40
:10154000C00111248F0D911DE80FF91F20812093F8
:10155000C702E0911401F0911501E80FF91F3081E5
:101560003093C502231759F1EC01CD5CDD4F2223E6
:1015700041F080E09EDE8093880288831092C6024C
:1015800009C0288120938802FC01E55EFE4F80811E
:101590008093C60210938702F092CA021092C90289
:1015A00017DF8091C802E09131020E9FF0011124F3
:1015B000E80FF11DE55EFE4F8091C60280838091A9
:1015C000C8028F5F8093C802AECF1F5F10933102B5
:1015D000A3CF65D581D78FE19EE40197F1F700C0D5
:1015E00000008091270280FF02C0259A01C0259843
:1015F0008091270281FF02C0269A01C0269880911F
:10160000270282FF02C0279A01C0279880912702F3
:10161000809127026ECFC1D0811105C01AD08823D6
:1016200021F082E0089581E0089580E00895CF934D
:10163000DF93EC017BD1811106C0CE0135D0882328
:1016400021F082E003C081E001C080E0DF91CF9112
:101650000895CF933BD380E458D3C82F811120C085
:1016600080E053D38FEF51D380EC4FD346D32ED3AA
:1016700080E44BD3C82F811113C08CE046D38FEF89
:1016800044D380EC42D339D321D380E43ED3C82F56
:10169000811106C084E139D38FEF37D38FEF35D373
:1016A0002CD38C2FCF910895BF92CF92DF92EF92DF
:1016B000FF920F931F93CF93DF9300D0CDB7DEB788
:1016C000F82E9A83C6DFB82E9A81882371F02F2DC9
:1016D000392F96E0F90187E011928150E9F7915096
:1016E000225F3F4F9111F6CF4BC00F2D192F85E090
:1016F000E82EF12CCC24C394D12CE8D280E405D37D
:1017000083E103D3C6010E2C01C0880F0A94EAF7C7
:101710008095FBD2F2D2DAD280E4F7D282E1F5D220
:10172000D5D281E4F2D2CE0101960DD3E6D28981E1
:1017300090E0F80140E050E09C01042E02C0359595
:1017400027950A94E2F72170332761E0262721705C
:1017500021934F5F5F4F4730510571F781E0E81AE1
:10176000F108025F1F4F6FEFE616F60609F0C5CFCE
:10177000ADD280E4CAD283E1C8D28FEFC6D2BDD247
:101780008B2D0F900F90DF91CF911F910F91FF90B4
:10179000EF90DF90CF90BF900895E1E6F0E080E811
:1017A0008083108256985E9824982C9825982698C5
:1017B000279889EA8093800089E0809381007DD218
:1017C0003F9885E08A95F1F70000579885E08A9563
:1017D000F1F70000549885E08A95F1F700005598DC
:1017E00085E08A95F1F700006E9885E08A95F1F71B
:1017F0000000479A85E08A95F1F700005F9A85E03E
:101800008A95F1F700005C9A85E08A95F1F700006F
:101810005D9A85E08A95F1F70000769A85E08A95D1
:10182000F1F70000879885E08A95F1F70000869827
:1018300085E08A95F1F70000859885E08A95F1F7B3
:101840000000849885E08A95F1F70000819885E092
:101850008A95F1F70000809885E08A95F1F70000FD
:10186000209885E08A95F1F70000219885E08A9517
:10187000F1F70000229885E08A95F1F7000023989F
:1018800085E08A95F1F70000529885E08A95F1F796
:101890000000539885E08A95F1F700003E9885E0B6
:1018A0008A95F1F700008F9885E08A95F1F700009E
:1018B0008E9885E08A95F1F700008D9885E08A95ED
:1018C000F1F700008C9885E08A95F1F7000089987F
:1018D00085E08A95F1F70000889885E08A95F1F710
:1018E0000000289A85E08A95F1F70000299A85E0A2
:1018F0008A95F1F700002A9A85E08A95F1F70000B1
:101900002B9A85E08A95F1F700005A9A85E08A952E
:10191000F1F700005B9A85E08A95F1F70000469A9E
:1019200085E08A95F1F7000080E00895FC01879A30
:1019300085E08A95F1F7000093B1917081E09827D6
:10194000978393B1969591709827908793B192FB66
:10195000992790F99827918793B193FB992790F94C
:101960009827928799B192FB992790F998279387A6
:1019700099B193FB992790F99827948796B196FB94
:10198000992790F998279587879895E09A95F1F788
:101990000000869A95E09A95F1F7000093B1917056
:1019A0009827958B93B1969591709827968B93B1C4
:1019B00092FB992790F99827978B93B193FB9927DE
:1019C00090F99827908F99B192FB992790F99827D1
:1019D000918F99B193FB992790F99827928F96B19F
:1019E00096FB992790F99827938F869895E09A957A
:1019F000F1F70000859A95E09A95F1F7000093B110
:101A00009170982793A393B196959170982794A37A
:101A100093B192FB992790F9982795A393B193FBE3
:101A2000992790F9982796A399B192FB992790F955
:101A3000982797A399B193FB992790F9982790A796
:101A400096B196FB992790F9982791A7859895E0EC
:101A50009A95F1F70000849A95E09A95F1F70000C5
:101A600093B19170982791AB93B196959170982707
:101A700092AB93B192FB992790F9982793AB93B1CE
:101A800093FB992790F9982794AB99B192FB9927EA
:101A900090F9982795AB99B193FB992790F99827DE
:101AA00096AB96B196FB992790F9982797AB8498B7
:101AB00095E09A95F1F70000819A95E09A95F1F7F3
:101AC000000093B19170982797AF93B1DF01A05CAC
:101AD000BF4F9695917098279C9393B1DF01AF5BB0
:101AE000BF4F92FB992790F998279C9393B1DF0100
:101AF000AE5BBF4F93FB992790F998279C9399B1C0
:101B0000DF01AD5BBF4F92FB992790F998279C931B
:101B100099B1DF01AC5BBF4F93FB992790F99827F0
:101B20009C9396B1DF01AB5BBF4F96FB992790F971
:101B300098279C93819895E09A95F1F70000809AF8
:101B400095E09A95F1F7000093B1EA5BFF4F917031
:101B50009827978393B1969591709827908793B122
:101B600092FB992790F99827918793B193FB992736
:101B700090F99827928799B192FB992790F9982725
:101B8000938799B193FB992790F99827948796B1F9
:101B900096FB992790F998279587809885E08A95F4
:101BA000F1F7000080E00895962F662309F45AC0EB
:101BB000462F50E0FA01E05EF109E830F105B8F592
:101BC000EA5AFF4F90912F02A5C4882311F091602B
:101BD00001C09E7F90932F020895882311F0926098
:101BE000F9CF9D7FF7CF882311F09460F3CF9B7FCF
:101BF000F1CF882311F09860EDCF977FEBCF88234A
:101C000011F09061E7CF9F7EE5CF882311F09062BD
:101C1000E1CF9F7DDFCF882311F09064DBCF9F7BE6
:101C2000D9CF882311F09068D5CF9F77D3CFE9E241
:101C3000F2E020E030E04081882339F041110CC00F
:101C4000F901E75DFD4F90830895491305C0F9013F
:101C5000E75DFD4F108208952F5F3F4F319626308C
:101C6000310549F70895482F50E0FA01E05EF10987
:101C7000E830F105A8F4E25AFF4F90912F024AC4D0
:101C800090FD19C091FD17C092FD15C093FD13C0C2
:101C900094FD11C095FD0FC096FD0DC097FD0BC0C2
:101CA000E9E2F2E09191981731F092E0EF32F90712
:101CB000C9F780E0089581E00895E9EBF0E08081C4
:101CC0008C7F808388E48093B800089584EA8093B1
:101CD000BC008091BC0087FFFCCF8091B900887F59
:101CE000883049F08091B900887F803121F080915F
:101CF000B900887F089580E0089584E98093BC004E
:101D00008091BC0084FDFCCF08958093BB0084E8E3
:101D10008093BC008091BC0087FFFCCF8091B9000C
:101D2000887F883171F08091B900887F883249F0CE
:101D30008091B900887F803421F08091B900887F3C
:101D4000089580E0089524EC2093BC002091BC000D
:101D500027FFFCCF2091BB00FC0120838091B900BC
:101D6000887F803521F08091B900887F089580E0D8
:101D70000895CF93DF93C82FD0E0C95EDD4F8881EF
:101D8000E1DA1882DF91CF9108951F93CF93DF930B
:101D90009091CA0220918802E09187023EE0E39F81
:101DA000F001112434E5239FE00DF11D1124E90F0A
:101DB000F11DE451F24F1491C82FD0E0C95EDD4F00
:101DC0008881C0DA80E087DA8150823018F480E0C0
:101DD00070DAB8DA60E0812F90DA8883DF91CF91F2
:101DE0001F9108958091CA0290918802E091870224
:101DF0002EE0E29FF001112424E5929FE00DF11DF9
:101E00001124E80FF11DE451F24F64918091C70253
:101E1000CBCE8091C602811103C081E08093320253
:101E2000E1CFCF93DF931F92CDB7DEB78091CA0287
:101E300090918802E09187022EE0E29FF001112448
:101E400024E5929FE00DF11D1124E80FF11DE451EE
:101E5000F24F6491862F698306DF6981882311F030
:101E600080E001C081E00F90DF91CF919DCE81E0B5
:101E70008093C6028091C9028F5F8093C90219DAEC
:101E8000809388029091CA02E09187022EE0E29F3F
:101E9000F0011124E90FF11DED5CFD4F808398CA1C
:101EA00081E073CF81E065CF82E06FCF82E061CFC8
:101EB00083E06BCF83E05DCF84E067CF84E059CFD0
:101EC00085E063CF85E055CF86E05FCF86E051CFD8
:101ED00087E05BCF87E04DCF88E057CF88E049CFE0
:101EE00089E053CF89E045CF8AE04FCF8AE041CFE8
:101EF000F89481E08093E00080E28093D800E9ECE0
:101F0000F0E010828FE19EE40197F1F700C000003D
:101F10001DBA109268001CBC10BE1FBA10927A0045
:101F200010926E0010926F00109271001092720069
:101F30001082ECEBF0E0108214B817B81AB81DB894
:101F400010BA108215B818B81BB81EB811BA0C9484
:101F5000003F089563E881E027DEA1D063E880E0D8
:101F600023DE9DC061EE8091C7021EDE52CF8091BC
:101F7000CA0290918802E09187022EE0E29FF00170
:101F8000112424E5929FE00DF11D1124E80FF11DAD
:101F9000E451F24F64918091C702811105C0909184
:101FA0002402915090932402FFDD8091240281301D
:101FB00041F58091C702882321F181EE54DE8093A0
:101FC000230285EE50DE8093220261EE80E0ECDD9C
:101FD00065EE80E0E9DD69E381E0E6DD60D069E39C
:101FE00080E0E2DD5CD080912302882319F061EE6D
:101FF00081E0DADD80912202882319F065EE81E02C
:10200000D3DD8091C702882329F0809124028F5F5D
:10201000809324020895CF938091CA029091880200
:10202000E09187022EE0E29FF001112424E5929FC7
:10203000E00DF11D1124E80FF11DE451F24FC491A0
:10204000809125027FD960E08C2F57D9809325029B
:10205000CF9180CF8091250275D9109225027ACF39
:102060008091E80080FFFCCF089581E08093D70045
:1020700080EA8093D80082E189BD09B400FEFDCFDB
:1020800080E98093D8001092E000109230028CE03A
:102090008093E200789408958091300208958091B1
:1020A0003002811102C08FEF08958FB7F89491E04C
:1020B0009093E9009091E4009E5C21E03091E8006B
:1020C00035FD0EC08FBF80913002882361F380916F
:1020D000E400891741F38FB7F8942093E900EECF1D
:1020E00090912F029093F1001092F100E9E2F2E05A
:1020F00091919093F10092E0EF32F907C9F79AE3DA
:102100009093E800109228028FBF80E008951F92FC
:102110000F920FB60F9211248F939F93EF93FF931B
:102120008091E1001092E10083FF0FC01092E9005E
:1021300091E09093EB001092EC0092E29093ED000E
:1021400098E09093F0001092300282FF33C08091AB
:102150003002882379F180911801882359F1809108
:1021600026028F5F80932602837021F581E08093A1
:10217000E9008091E80085FF1DC0809128028F5FF3
:102180008093280290911801891314C0109228029C
:1021900080912F028093F1001092F100E9E2F2E0C9
:1021A00081918093F10082E0EF32F807C9F78AE36A
:1021B0008093E800FF91EF919F918F910F900FBE58
:1021C0000F901F9018951F920F920FB60F92112427
:1021D000EF92FF920F931F932F933F934F935F9331
:1021E0006F937F938F939F93AF93BF93EF93FF93DF
:1021F000CF93DF931F92CDB7DEB71092E9008091A5
:10220000E80083FF21C19091F1008091F1003091AD
:10221000F1002091F100E32EF12CF22A0091F1005F
:102220002091F10010E0122B2091F1006091F1005B
:1022300032EF3093E800863009F046C039E084E39D
:1022400091E1FC01459154914E155F0539F4FC0173
:102250003296459154914017510721F0079631501D
:1022600081F7F2C0FC01349645915491FC013696F9
:10227000849130E0362B2F3F310519F010F02FEF0D
:1022800030E0281708F4822F3EEF9091E800292FC4
:102290002570D9F392FDDBC0982F813208F090E2CF
:1022A000FA01292F222331F064916093F10021502B
:1022B0003196F8CF490F511D891B3093E8008111E9
:1022C000E4CF903211F3C3C0853049F48EEF809390
:1022D000E800C6DE8E2D80688093E300B8C08930A8
:1022E00041F5911146C0E09230028EEF8093E800F4
:1022F00041E08EE692E14093E9009C012F5F3F4F61
:10230000FC0154915093EB00552361F0F9012491A5
:102310002093EC009C012D5F3F4FFC01329684918D
:102320008093ED004F5F453011F0C901E4CF8EE19D
:1023300041C0883039F4903809F041C091DE809175
:10234000300260C0811115C099838ADE998192386C
:1023500051F40093E9008091EB0085FB882780F918
:102360001092E90001C080E08093F1001092F1002A
:1023700067C0282F2D7F213011F5923001F5EF280D
:1023800009F062C00F779FEF900F943008F05CC0A7
:102390009EEF9093E8000093E900833009F454C065
:1023A00089E18093EB0081E090E0002E01C0880F6E
:1023B0000A94EAF78093EA001092EA0048C0012BE1
:1023C00009F042C0913A09F5813089F449DE8091E3
:1023D0002F028093F1001092F100E9E2F2E0819186
:1023E0008093F10082E0EF32F807C9F729C082300C
:1023F00021F436DE8091180105C0833029F530DEE6
:10240000809119018093F1001BC09132E9F4893069
:1024100061F48091E80082FFFCCF8091F10080930D
:1024200027028BEF8093E8000BC08A3029F4F092EA
:1024300018011092280204C08B3031F4E092190187
:102440008EEF8093E80003C081E28093EB000F9051
:10245000DF91CF91FF91EF91BF91AF919F918F91BC
:102460007F916F915F914F913F912F911F910F91AC
:10247000FF90EF900F900FBE0F901F9018959091C6
:102480003002911102C08FEF08959FB7F89422E0B7
:102490002093E9002091E4002E5C32E04091E800B6
:1024A00045FD0EC09FBF90913002992361F390913A
:1024B000E400921741F39FB7F8943093E900EECF10
:1024C0008093F1006093F1007093F1008AE38093B0
:1024D000E8009FBF80E008956091CB027091CC022C
:1024E0008091CD029091CE026817790781F083E048
:1024F000C6DF992787FD9095009759F42091CB026C
:102500003091CC023093CE022093CD02089580E02A
:1025100090E00895EE0FFF1F0590F491E02D0994CF
:04252000F894FFCF5D
:1025240001000000000000000000000000000000A6
:0A253400000000006F01C3017D01EB
:00000001FF
