:100000000C9433090C944E090C944E090C944E092F
:100010000C944E090C944E090C944E090C944E0904
:100020000C944E090C944E090C94C60E0C94220F9D
:100030000C944E090C944E090C944E090C944E09E4
:100040000C944E090C944E090C944E090C944E09D4
:100050000C944E090C944E090C944E090C944E09C4
:100060000C944E090C944E090C944E090C944E09B4
:100070000C944E090C944E090C944E090C944E09A4
:100080000C944E090C944E090C944E090C944E0994
:100090000C944E090C944E090C944E090C944E0984
:1000A0000C944E090C944E090C944E09A60DAE0DFD
:1000B000B40DBA0DC00DC60DCC0DD20D0000670EEB
:1000C000670E670E670E670E670E670E670E670E88
:1000D000670E670E670E0000670E670E670E670EED
:1000E000670E0000000000000000670E670E0000B1
:1000F0000000670E670E670E670E670E670E670ECD
:10010000670E670E670E670E670E670E670E670E47
:10011000670E670E670E670E670E670E0000000021
:10012000670E670E670E670E670E670E670E670E27
:10013000670E670E670E670E670E670E670E670E17
:10014000670E670E670E670E670E670E670E670E07
:10015000670E670E670E670E670E670E670E670EF7
:10016000670E670E000000000000000000000000A5
:10017000000000000000000000000000000000007F
:10018000000000000000000000000000000000006F
:10019000000000000000000000000000000000005F
:1001A000000000000000000000000000000000004F
:100740000000000000000000000000000000670E34
:10075000670E670E670E670E670E670E670E670EF1
:10076000670E670E670E0000670E670E670E670E56
:10077000670E0000000000000000670E670E00001A
:100780000000670E670E670E670E670E670E670E36
:10079000670E670E670E670E670E670E670E670EB1
:1007A000670E670E670E670E670E670E000000008B
:1007B000670E670E670E670E670E670E670E670E91
:1007C000670E670E670E670E670E670E670E670E81
:1007D000670E670E670E670E670E670E670E670E71
:1007E000670E670E670E670E670E670E670E670E61
:1007F000670E670E0000000000000000000000000F
:1008000000000000000000000000000000000000E8
:1008100000000000000000000000000000000000D8
:1008200000000000000000000000000000000000C8
:1008300000000000000000000000000000000000B8
:100DD000000000000000000000000000004F282C70
:100DE000502D352E31522CE551008180E0E2E30098
:100DF000000000E7E6000041E1001D1B06190500A8
:100E00001110363738E539041607090A00000B0DB2
:100E10000E0F33282B141A08151731381C180C1212
:100E20001334291E1F2021222F3023242526272A70
:100E300000000000000000000000000000000000B2
:100E400000000000000000000000000000000000A2
:100E50000000000000000000000000000000000092
:100E60000000000000000000000000000000000082
:1011200000000000000100004C121200020000B993
:10113000113B00210000CB1109002200000D123FDD
:1011400000210100E4110900220100F4111900033B
:101150000000B51104010309049B111802030904DE
:1011600063113636034500720067006F0044006F5C
:1011700000780020006500720067006F006E006F4D
:10118000006D006900630020006B0065007900625B
:10119000006F006100720064000000180375006EAB
:1011A00000730070006500630069006600690065F7
:1011B00000640000000403090409023B000201006E
:1011C000C0320904000001030101000921110100DE
:1011D00001223F000705810308000A0904010001FC
:1011E00003000000092111010001221900070582F6
:1011F0000308000A050C0901A10185031501269CBD
:101200000219012A9C02751095018100C00501098F
:1012100006A10175019508050719E029E7150025C4
:10122000018102950175088103950575010508196D
:10123000012905910295017503910395067508151D
:101240000025680507190029688100C01201000205
:1012500000000020501D286000010102000101C1B2
:101260000601C106000011241FBECFEFDAE0DEBF89
:10127000CDBF11E0A0E0B1E0E0EAF1E202C00590EC
:101280000D92AA31B107D9F722E0AAE1B1E001C07D
:101290001D92A03CB207E1F79DD080C70C940000DE
:1012A00020911A01281760F030E0281B3109F9015C
:1012B000EE0FFF1FE20FF31FE658FD4F80810895E8
:1012C00080E00895CF93DF9360911A0191E0C82FD9
:1012D000D0E0C050DF4F6917B0F1292F30E0F9019D
:1012E000EE0FFF1FE20FF31FE658FD4F2181281379
:1012F00028C0292F30E09617C1F0A9014F5F5F4F3A
:10130000DA01AA0FBB1FA40FB51FA658BD4F4C9101
:10131000F901EE0FFF1FE20FF31FE658FD4F408368
:1013200011962C9121839F5FE4CFF901EE0FFF1FEF
:10133000E20FF31FE658FD4F1082118218826FEF03
:10134000690F9F5FC8CF60931A01DF91CF91089515
:101350002091B8028091BB0290917902E0917802CD
:10136000222381F02EE0E29FF001112424E5929FD8
:10137000E00DF11D1124E80FF11DEE0FFF1FE45BDE
:10138000F84F0FC02EE0E29FF001112424E5929F58
:10139000E00DF11D1124E80FF11DEE0FFF1FE454C5
:1013A000FF4F85919491009711F0FC010995809170
:1013B0001A01282F30E0F901EE0FFF1FE20FF31F93
:1013C000E658FD4F9281923021F4909123029111C1
:1013D00079CF0895E6D08CE090E0909389008093D7
:1013E000880090938B0080938A0090938D00809367
:1013F0008C00259A269A279A77D48DD48823E9F3EE
:101400008FE790E090938900809388002FE782E433
:1014100090E1215080409040E1F700C000008FE74C
:1014200090E090938B0080938A002FE782E490E114
:10143000215080409040E1F700C000008FE790E02D
:1014400090938D0080938C002FE782E490E12150EF
:1014500080409040E1F700C000002598269827982A
:101460008FE790E0909389008093880090938B00A1
:1014700080938A0090938D0080938C000EE0809181
:1014800014019091150120911601309117013093AC
:1014900015012093140190931701809316018DD0AC
:1014A0001092220280912202863008F058C01092D9
:1014B000B902F090B902109122022DE02F1508F424
:1014C0004AC0E0911601F0911701019FC00111245B
:1014D0008F0D911DE80FF91F20812093B802E09134
:1014E0001401F0911501E80FF91F30813093B60215
:1014F000231759F1EC01CC5DDD4F222341F080E050
:10150000CFDE8093790288831092B70209C02881C8
:1015100020937902FC01E55EFE4F80818093B70243
:1015200010937802F092BB021092BA0211DF809100
:10153000B902E09122020E9FF0011124E80FF11D83
:10154000E55EFE4F8091B70280838091B9028F5F84
:101550008093B902AECF1F5F10932202A3CFDED3D8
:10156000F9D58FE19EE40197F1F700C0000080916A
:10157000180280FF02C0259A01C0259880911802A8
:1015800081FF02C0269A01C026988091180282FF2E
:1015900002C0279A01C027988091180280911802F2
:1015A0006ECFC1D0811105C01AD0882321F082E00E
:1015B000089581E0089580E00895CF93DF93EC01D2
:1015C0007BD1811106C0CE0135D0882321F082E085
:1015D00003C081E001C080E0DF91CF910895CF93F7
:1015E0000CD380E429D3C82F811120C080E024D3FC
:1015F0008FEF22D380EC20D317D3FFD280E41CD30B
:10160000C82F811113C08CE017D38FEF15D380EC56
:1016100013D30AD3F2D280E40FD3C82F811106C0AE
:1016200084E10AD38FEF08D38FEF06D3FDD28C2F3E
:10163000CF910895BF92CF92DF92EF92FF920F93D6
:101640001F93CF93DF9300D0CDB7DEB7F82E9A83E8
:10165000C6DFB82E9A81882371F02F2D392F96E09E
:10166000F90187E011928150E9F79150225F3F4FD5
:101670009111F6CF4BC00F2D192F85E0E82EF12CDC
:10168000CC24C394D12CB9D280E4D6D283E1D4D275
:10169000C6010E2C01C0880F0A94EAF78095CCD2BF
:1016A000C3D2ABD280E4C8D282E1C6D2A6D281E452
:1016B000C3D2CE010196DED2B7D2898190E0F80183
:1016C00040E050E09C01042E02C0359527950A9415
:1016D000E2F72170332761E02627217021934F5FC5
:1016E0005F4F4730510571F781E0E81AF108025F5A
:1016F0001F4F6FEFE616F60609F0C5CF7ED280E4E5
:101700009BD283E199D28FEF97D28ED28B2D0F90FF
:101710000F90DF91CF911F910F91FF90EF90DF908D
:10172000CF90BF900895E1E6F0E080E880831082DA
:1017300056985E9824982C9825982698279889EA98
:101740008093800089E0809381004ED23F9885E0AD
:101750008A95F1F70000579885E08A95F1F7000027
:10176000549885E08A95F1F70000559885E08A95B0
:10177000F1F700006E9885E08A95F1F70000479A2E
:1017800085E08A95F1F700005F9A85E08A95F1F788
:1017900000005C9A85E08A95F1F700005D9A85E08B
:1017A0008A95F1F70000769A85E08A95F1F70000B6
:1017B000879885E08A95F1F70000869885E08A95FC
:1017C000F1F70000859885E08A95F1F7000084988C
:1017D00085E08A95F1F70000819885E08A95F1F718
:1017E0000000809885E08A95F1F70000209885E058
:1017F0008A95F1F70000219885E08A95F1F70000BD
:10180000229885E08A95F1F70000239885E08A9573
:10181000F1F70000529885E08A95F1F7000053989F
:1018200085E08A95F1F700003E9885E08A95F1F70A
:1018300000008F9885E08A95F1F700008E9885E08A
:101840008A95F1F700008D9885E08A95F1F7000000
:101850008C9885E08A95F1F70000899885E08A9553
:10186000F1F70000889885E08A95F1F70000289A42
:1018700085E08A95F1F70000299A85E08A95F1F7CD
:1018800000002A9A85E08A95F1F700002B9A85E0FE
:101890008A95F1F700005A9A85E08A95F1F70000E1
:1018A0005B9A85E08A95F1F70000469A85E08A9573
:1018B000F1F7000080E00895FC01879A85E08A95A1
:1018C000F1F7000093B1917081E09827978393B16D
:1018D000969591709827908793B192FB992790F9EC
:1018E0009827918793B193FB992790F9982792872E
:1018F00099B192FB992790F99827938799B193FB17
:10190000992790F99827948796B196FB992790F993
:1019100098279587879885E08A95F1F70000869A41
:1019200085E08A95F1F7000093B1917081E09827E6
:10193000958B93B1969591709827968B93B192FB66
:10194000992790F99827978B93B193FB992790F952
:101950009827908F99B192FB992790F99827918FAA
:1019600099B193FB992790F99827928F96B196FB9E
:10197000992790F99827938F869885E08A95F1F7B3
:101980000000859A85E08A95F1F7000093B1917087
:1019900081E0982793A393B196959170982794A38B
:1019A00093B192FB992790F9982795A393B193FB54
:1019B000992790F9982796A399B192FB992790F9C6
:1019C000982797A399B193FB992790F9982790A707
:1019D00096B196FB992790F9982791A7859885E06D
:1019E0008A95F1F70000849A85E08A95F1F7000066
:1019F00093B1917081E0982791AB93B196959170D6
:101A0000982792AB93B192FB992790F9982793ABC3
:101A100093B193FB992790F9982794AB99B192FBD6
:101A2000992790F9982795AB99B193FB992790F94D
:101A3000982796AB96B196FB992790F9982797AB84
:101A4000849885E08A95F1F70000819A85E08A956F
:101A5000F1F7000093B1917081E0982797AF93B1AF
:101A6000DF01A05CBF4F9695917098279C9393B12E
:101A7000119692FB992790F998279C9393B1119610
:101A800093FB992790F998279C9399B1119692FB13
:101A9000992790F998279C9399B1119693FB9927D0
:101AA00090F998279C9396B1119696FB992790F9F7
:101AB00098279C93819885E08A95F1F70000809A99
:101AC00085E08A95F1F7000093B1EA5BFF4F9170D2
:101AD00081E09827978393B1969591709827908786
:101AE00093B192FB992790F99827918793B193FB33
:101AF000992790F99827928799B192FB992790F9A5
:101B00009827938799B193FB992790F99827948701
:101B100096B196FB992790F998279587809885E04C
:101B20008A95F1F7000080E00895962F662309F466
:101B30005AC0462F50E0FA01E05EF109E830F105A5
:101B4000B8F5EA5AFF4F9091200222C3882311F082
:101B5000916001C09E7F909320020895882311F028
:101B60009260F9CF9D7FF7CF882311F09460F3CF77
:101B70009B7FF1CF882311F09860EDCF977FEBCF5B
:101B8000882311F09061E7CF9F7EE5CF882311F085
:101B90009062E1CF9F7DDFCF882311F09064DBCF8F
:101BA0009F7BD9CF882311F09068D5CF9F77D3CF73
:101BB000EAE1F2E020E030E04081882339F0411191
:101BC0000CC0F901E65EFD4F90830895491305C0EE
:101BD000F901E65EFD4F108208952F5F3F4F319669
:101BE0002630310549F70895E9EBF0E080818C7FDC
:101BF000808388E48093B800089584EA8093BC00D1
:101C00008091BC0087FFFCCF8091B900887F88302D
:101C100049F08091B900887F803121F08091B9002E
:101C2000887F089580E0089584E98093BC008091C6
:101C3000BC0084FDFCCF08958093BB0084E88093B2
:101C4000BC008091BC0087FFFCCF8091B900887FE9
:101C5000883171F08091B900887F883249F0809195
:101C6000B900887F803421F08091B900887F089581
:101C700080E0089524EC2093BC002091BC0027FF55
:101C8000FCCF2091BB00FC0120838091B900887FAC
:101C9000803521F08091B900887F089580E0089513
:101CA0008091BB0290917902E09178022EE0E29F50
:101CB000F001112424E5929FE00DF11D1124E80F9D
:101CC000F11DE452F24F64918091B8022ECF8091C1
:101CD000B702811103C081E080932302E1CF80919C
:101CE000E80080FFFCCF089581E08093D70080EA70
:101CF0008093D80082E189BD09B400FEFDCF80E960
:101D00008093D8001092E000109221028CE0809322
:101D1000E200789408958091210208958091210233
:101D2000811102C08FEF08958FB7F89491E09093DE
:101D3000E9009091E4009E5C21E03091E80035FDDF
:101D40000EC08FBF80912102882361F38091E4004F
:101D5000891741F38FB7F8942093E900EECF909163
:101D600020029093F1001092F100EAE1F2E09191EB
:101D70009093F10092E0E032F907C9F79AE390936B
:101D8000E800109219028FBF80E008951F920F9211
:101D90000FB60F9211248F939F93EF93FF9380912F
:101DA000E1001092E10083FF0FC01092E90091E082
:101DB0009093EB001092EC0092E29093ED0098E08B
:101DC0009093F0001092210282FF33C08091210293
:101DD000882379F180911801882359F180911702A5
:101DE0008F5F80931702837021F581E08093E90073
:101DF0008091E80085FF1DC0809119028F5F80935C
:101E0000190290911801891314C01092190280913F
:101E100020028093F1001092F100EAE1F2E081915A
:101E20008093F10082E0E032F807C9F78AE38093FB
:101E3000E800FF91EF919F918F910F900FBE0F904F
:101E40001F9018951F920F920FB60F921124EF92C8
:101E5000FF920F931F932F933F934F935F936F9333
:101E60007F938F939F93AF93BF93EF93FF93CF9302
:101E7000DF931F92CDB7DEB71092E9008091E800A2
:101E800083FF20C19091F1008091F1003091F10029
:101E90002091F100E32EF12CF22A0091F100209123
:101EA000F10010E0122B2091F1006091F10032EF6F
:101EB0003093E800863009F046C039E084E291E1D1
:101EC000FC01459154914E155F0539F4FC013296A1
:101ED000459154914017510721F00796315081F7F1
:101EE000F1C0FC01349645915491FC0136968491E1
:101EF00030E0362B2F3F310519F010F02FEF30E096
:101F0000281708F4822F3EEF9091E800292F2570C2
:101F1000D9F392FDDAC0982F813208F090E2FA01ED
:101F2000292F222331F064916093F10021503196E2
:101F3000F8CF490F511D891B3093E8008111E4CF80
:101F4000903211F3C2C0853049F48EEF8093E800DF
:101F5000C6DE8E2D80688093E300B7C0893039F5E6
:101F6000911145C0E09221028EEF8093E80041E09C
:101F70008EE592E14093E9009C012F5F3F4FFC0109
:101F800054915093EB00552359F0F901249120937B
:101F9000EC009C012D5F3F4F319684918093ED00C2
:101FA0004F5F453011F0C901E5CF8EE141C0883067
:101FB00039F4903809F041C092DE8091210260C06E
:101FC000811115C099838BDE9981923851F4009369
:101FD000E9008091EB0085FB882780F91092E900E9
:101FE00001C080E08093F1001092F10067C0282FBB
:101FF0002D7F213011F5923001F5EF2809F062C0F4
:102000000F779FEF900F943008F05CC09EEF909395
:10201000E8000093E900833009F454C089E180931B
:10202000EB0081E090E0002E01C0880F0A94EAF7EF
:102030008093EA001092EA0048C0012B09F042C0E8
:10204000913A09F5813089F44ADE8091200280932B
:10205000F1001092F100EAE1F2E081918093F10049
:1020600082E0E032F807C9F729C0823021F437DE78
:102070008091180105C0833029F531DE8091190166
:102080008093F1001BC09132E9F4893061F48091B2
:10209000E80082FFFCCF8091F100809318028BEF63
:1020A0008093E8000BC08A3029F4F0921801109256
:1020B000190204C08B3031F4E09219018EEF809345
:1020C000E80003C081E28093EB000F90DF91CF9195
:1020D000FF91EF91BF91AF919F918F917F916F9100
:1020E0005F914F913F912F911F910F91FF90EF9032
:1020F0000F900FBE0F901F90189590912102911193
:1021000002C08FEF08959FB7F89422E02093E90072
:102110002091E4002E5C32E04091E80045FD0EC0C5
:102120009FBF90912102992361F39091E40092174F
:1021300041F39FB7F8943093E900EECF8093F1001C
:102140006093F1007093F1008AE38093E8009FBFF1
:1021500080E008956091BC027091BD028091BE0242
:102160009091BF026817790781F083E0C6DF992755
:1021700087FD9095009759F42091BC023091BD02E3
:102180003093BF022093BE02089580E090E008954E
:10219000EE0FFF1F0590F491E02D0994F894FFCF06
:1021A000010000000000000000000000000000002E
:0A21B000000000006F01C3017D0173
:00000001FF
